:020000040800F2
:10000000C00D00209D0100088D140008CB0E0008D3
:1000100089140008B50A0008412400080000000007
:10002000000000000000000000000000C11A0008ED
:100030006B0D00080000000031190008AD1B00081E
:10004000B7010008B7010008B7010008B7010008B0
:10005000B7010008B7010008B70100086D0D0008DE
:10006000B7010008B7010008B7010008B90A000885
:10007000B7010008B7010008B7010008B701000880
:10008000B7010008B7010008B7010008B701000870
:10009000B7010008B7010008B7010008B701000860
:1000A000B7010008B7010008B7010008B701000850
:1000B000511E0008B7010008B7010008B701000889
:1000C000B7010008B7010008B7010008B701000830
:1000D000B7010008B7010008B7010008B701000820
:1000E000B7010008B7010008B701000800F002F8E6
:1000F00000F045F80AA090E8000C82448344AAF17D
:100100000107DA4501D100F03AF8AFF2090EBAE87A
:100110000F0013F0010F18BFFB1A43F0010318473B
:100120003C2E00005C2E0000103A24BF78C878C135
:10013000FAD8520724BF30C830C144BF04680C60ED
:10014000704700000023002400250026103A28BF35
:1001500078C1FBD8520728BF30C148BF0B60704739
:10016000642900F08580752900F08280782900F0EC
:10017000BB80002070471FB51FBD10B510BD00F03B
:10018000F5FA1146FFF7F7FF02F0DAF900F013FB7A
:1001900003B4FFF7F2FF03BC02F05BF909488047A4
:1001A00009480047FEE7FEE7FEE7FEE7FEE7FEE759
:1001B000FEE7FEE7FEE7FEE704480549054A064B71
:1001C00070470000B11B0008ED000008C0070020C8
:1001D000C00D0020C0090020C009002070470000A9
:1001E0000FB4044910B503AA029800F0A9FA10BC94
:1001F0005DF814FB300000200FB41CB5074B06AAB5
:100200007B4469460090059800F081FA0020694619
:1002100000F090FA1CBC5DF814FB000031050000F2
:1002200070B5044685690068C10601D5302600E036
:100230002026C00707D070BDD4E901213046904781
:10024000206A401C20626D1EF6D570BD70B5044654
:1002500085690078C00707D170BDD4E9012120204D
:100260009047206A401C20626D1EF6D570BD0000CC
:100270002DE9F0410646002410687529314616A57F
:1002800010D0AFF30080002802DA404213A507E047
:1002900031688A0701D512A502E0490704D511A5E6
:1002A000012401E0AFF3008000210A2206F12407B7
:1002B00009E0B0FBF2FCB0FBF2F302FB1C003030B3
:1002C00078541846491C0028F3D123462A46304664
:1002D000BDE8F04100F0BCB9000000002D000000B6
:1002E0002B0000002000000070B504460D4621469A
:1002F0001068AFF300802188090502D50F4A7A44BF
:1003000002E00E4A7A440E32002104F1240305E093
:1003100000F00F060009965D5E54491C0028F7D1D5
:1003200020780023000704D5702D02D009B10223E4
:1003300011322046BDE8704000F08AB9202C000040
:100340002DE9F05F894604464FF0000ADFF874B1EA
:10035000FB44C0F820A02046E1688847002874D0FC
:10036000252806D0D4E901219047206A401C20624C
:10037000F1E700265F462046E168884720280546C9
:1003800007DB312D05D2781910F8200C08B106438F
:10039000F1E7B00701D526F00406C4F81CA0002739
:1003A000C4F818A02A2D09D0284602F04BF838B31B
:1003B00004EB8708303DC8F8185019E059F8041BC1
:1003C000204604EB87029161E1688847012F0546CA
:1003D00018D1E069002820DA26F020061DE0D8F8C0
:1003E000180000EB800005EB40003038C8F818001A
:1003F0002046E1688847054602F024F80028EED13F
:10040000012F0AD02E2D08D12046E16888477F1C95
:100410000546022F46F02006C4DBA069002803DA57
:10042000404246F00106A061F00701D026F0100618
:100430006C2D0BD0682D09D04C2D39D06A2D35D0BC
:10044000742D35D07A2D33D016E038E0E1682F4690
:1004500020468847B842054609D16C2F26D04FF474
:100460008060E168064320468847054604E06C2F1B
:100470001AD04FF4807006430DB3A5F1410019283E
:1004800002D8203546F400664A46294620462660B2
:100490004E46FFF765FE80B101280BD0F61D26F011
:1004A000070000F1080956E74020E4E78020D8E77C
:1004B0000020D6E706F104094DE7284652E7206AF6
:1004C000BDE8F09FF62B0000032A40F2308010F0C8
:1004D000030C00F0158011F8013BBCF1020F6244DF
:1004E00098BF11F801CB00F8013B38BF11F8013B70
:1004F000A2F1040298BF00F801CB38BF00F8013B1D
:1005000011F0030300F02580083AC0F0088051F88C
:10051000043B083A51F804CBA0E80810F5E7121D97
:100520005CBF51F8043B40F8043BAFF30080D207B6
:1005300024BF11F8013B11F801CB48BF11F8012B82
:1005400024BF00F8013B00F801CB48BF00F8012BA5
:10055000704710B5203AC0F00B80B1E81850203A2F
:10056000A0E81850B1E81850A0E81850BFF4F5AF53
:100570005FEA027C24BFB1E81850A0E8185044BFDD
:1005800018C918C0BDE810405FEA827C24BF51F84A
:10059000043B40F8043B08BF7047D20728BF31F83E
:1005A000023B48BF11F8012B28BF20F8023B48BF8F
:1005B00000F8012B70474FF000020429C0F01280B0
:1005C00010F0030C00F01B80CCF1040CBCF1020F06
:1005D00018BF00F8012BA8BF20F8022BA1EB0C01DB
:1005E00000F00DB85FEAC17C24BF00F8012B00F8D1
:1005F000012B48BF00F8012B70474FF0000200B5F7
:10060000134694469646203922BFA0E80C50A0E835
:100610000C50B1F12001BFF4F7AF090728BFA0E8E3
:100620000C5048BF0CC05DF804EB890028BF40F8AF
:10063000042B08BF704748BF20F8022B11F0804FF1
:1006400018BF00F8012B704770477047704770471C
:100650002DE9F0470D4699469246044600F12408DC
:100660000168880604D5E06921F01001216000E0EE
:100670000120A84201DD471B00E00027A1697A198B
:1006800002EB0900081AA0612078C00602D42046B7
:10069000FFF7C6FD002608E0D4E901211AF806009C
:1006A0009047206A401C761C20624E45F4DB20787F
:1006B000C0060AD52046FFF7B3FD06E0D4E90121C4
:1006C00030209047206A401C2062381EA7F10107A5
:1006D000F4DC07E0D4E9012118F805009047206A0E
:1006E000401C2062281EA5F10105F3DC2046FFF71F
:1006F000ADFD2078000602D50220BDE8F08701207C
:10070000FBE7000001694A1C02610878704700B5E8
:100710008FB0CDE901310021059105497944CDE93A
:10072000031011466846FFF70BFE0FB000BD000036
:10073000E5FFFFFF0A6802F8010B0A60704700003E
:10074000074B70B50D467B44FFF7E1FF0446284692
:1007500000F008F810B14FF0FF3070BD204670BDBA
:10076000D31D0000007B00F080007047754600F04C
:100770002BF8AE4605006946534620F00700854633
:1007800018B020B5FFF718FDBDE820404FF0000677
:100790004FF000074FF000084FF0000B21F0070169
:1007A000AC46ACE8C009ACE8C009ACE8C009ACE8AC
:1007B000C0098D46704710B50446AFF3008020464F
:1007C000BDE81040FFF7E4BC004870475C0700201C
:1007D00000B587B001214FF4017001F0E7F8002067
:1007E0008DF81B000220ADF8180006A9204800F083
:1007F000E1FA4FF4004001F09DF81E4800F072F855
:10080000002001908DF8080001208DF809004FF4B8
:100810006020039001208DF8140001A9154800F014
:10082000A3F8052301221146124800F0C5F8012162
:10083000104800F03BF801210E4800F02CF80D485C
:1008400000F016F900BF0B4800F084F80028FAD138
:10085000084800F01DF900BF064800F071F80028B4
:10086000FAD10121034800F008F907B000BD0000EB
:10087000000801400024014010B50246002300207A
:1008800004E032F810402344441CA0B28842F8DB54
:10089000B3FBF1F010BD21B1826842F00102826029
:1008A00003E0826822F001028260704721B1826811
:1008B00042F48072826003E0826822F48072826077
:1008C0007047000010B500200449088004490880E2
:1008D00000F00CF9FFF77CFF10BD0000380000208D
:1008E0003A00002010B504461248844208D1012184
:1008F000401501F06BF80021601501F067F817E072
:100900000D48844208D10121001501F05FF8002153
:10091000201501F05BF80BE00848844208D1012162
:10092000C80301F053F800214FF4004001F04EF8E5
:1009300010BD00000024014000280140003C01409F
:10094000014600208A6802F004020AB1012000E09A
:1009500000207047014600208A6802F008020AB1B0
:10096000012000E00020704730B50246002000233F
:1009700050680F4C20400D790C6844EA0524204350
:10098000506090680B4C2040D1E902542C434D79C3
:1009900044EA450420439060D06A20F470000C7C47
:1009A000641EE4B2234340EA0350D06230BD00002D
:1009B000FFFEF0FFFDF7F1FFF0B504460D46002005
:1009C0000021092D11DDE068A5F10A0606EB4607B6
:1009D000072606FA07F18843A5F10A0606EB460644
:1009E00003FA06F10843E0600CE0206905EB4507D7
:1009F000072606FA07F1884305EB450603FA06F1D8
:100A000008432061072A0FDA606B561E06EB860743
:100A10001F2606FA07F18843561E06EB860605FADE
:100A200006F10843606322E00D2A0FDA206BD61F1F
:100A300006EB86071F2606FA07F18843D61F06EB4A
:100A4000860605FA06F10843206310E0E06AA2F189
:100A50000D0606EB86071F2606FA07F18843A2F16A
:100A60000D0606EB860605FA06F10843E062F0BDC6
:100A7000816841F008018160704721B1826842F4C9
:100A8000A002826003E0826822F4A00282607047C4
:100A9000816841F0040181607047014640F23930BD
:100AA000484340F2FF7202EB800040F6FF72B0FB59
:100AB000F2F0704700BFFEE710B5042000F018F90F
:100AC00028B1042000F054F80120064908800220D3
:100AD00000F00EF928B1022000F04AF80120024986
:100AE000088010BD380000203A00002000B58DB00D
:100AF0000121084600F02AFF1A4800F053F81A486E
:100B000002901A480390002004904FF480700590E2
:100B100000200690802007904000089080000990F7
:100B200020200A9000020B9000200C9002A90D4892
:100B300000F0FDF8012206210A4800F0EFF80B2032
:100B40008DF8040001208DF805008DF806008DF861
:100B5000070001A800F09CFC0121024800F016F8F3
:100B60000DB000BD080002404C24014048010020A7
:100B700000F0805111B10349086001E0024948606A
:100B800070470000040402400000024021B10268E6
:100B900042F00102026004E002684FF6FE731A4060
:100BA0000260704701684FF6FE721140016000213B
:100BB000016041608160C1604B49884208D14A4967
:100BC0000839496841F00F01474A083A51608AE004
:100BD00045491431884208D143490839496841F0F0
:100BE000F001414A083A51607DE03F49283188428E
:100BF00008D13D490839496841F470613A4A083AD8
:100C0000516070E038493C31884208D13649083992
:100C1000496841F47041344A083A516063E032490E
:100C20005031884208D130490839496841F470216F
:100C30002D4A083A516056E02B496431884208D168
:100C400029490839496841F47001274A083A516036
:100C500049E025497831884208D123490839496853
:100C600041F07061204A083A51603CE01F498842D7
:100C700006D1011F096841F00F01021F116032E027
:100C80001A491431884208D11849091F096841F0EE
:100C9000F001164A121F116025E0144928318842DC
:100CA00008D11249091F096841F470610F4A121FE7
:100CB000116018E00D493C31884208D10B49091FE9
:100CC000096841F47041094A121F11600BE007499D
:100CD0005031884207D10549091F096841F4702144
:100CE000024A121F116070470800024008040240C7
:100CF00001460020002201F0805313B1054B1A6811
:100D000001E0054B1A6802EA01030BB1012000E083
:100D10000020704700040240000002401AB103683E
:100D20000B43036002E003688B430360704710B518
:100D30000022026847F6F0739A430C6A8B682343DB
:100D40000C6923434C6923438C692343CC692343B7
:100D50004C6A23438C6A23431A430260CB68436086
:100D60000B6883604B68C36010BD704710B50220EC
:100D700000F00CF810B1022000F002F810BD0000E5
:100D8000014908607047000014040140014600203A
:100D90000022074B1B6803EA0102054B14331B6852
:100DA0000B4013B10AB1012000E0002070470000A1
:100DB000000401402DE9F0410246002500260020F4
:100DC00000230024002791F803C00CF00F0591F8D0
:100DD00003C00CF0100CBCF1000F03D091F802C05E
:100DE0004CEA050591F800C0BCF1000F31D0146841
:100DF00000202BE04FF0010C0CFA00F3B1F800C01A
:100E00000CEA03069E4220D183004FF00F0C0CFA2F
:100E100003F7BC4305FA03FC4CEA040491F803C051
:100E2000BCF1280F06D14FF0010C0CFA00FCC2F8FF
:100E300014C00AE091F803C0BCF1480F05D14FF08F
:100E4000010C0CFA00FCC2F810C0401C0828D1D3D9
:100E50001460B1F800C0BCF1FF0F34DD546800200D
:100E60002EE000F1080C4FF0010808FA0CF3B1F87D
:100E700000C00CEA03069E4221D183004FF00F0C04
:100E80000CFA03F7BC4305FA03FC4CEA040491F89E
:100E900003C0BCF1280F05D100F1080C08FA0CF8CA
:100EA000C2F8148091F803C0BCF1480F07D100F1DB
:100EB000080C4FF0010808FA0CF8C2F81080401C2A
:100EC0000828CED35460BDE8F08100BFFEE70000E3
:100ED00070B5054601212E4800F0FCF82D4C00BFEE
:100EE0002D492B4800F0B8F810B9601E041EF7D148
:100EF00044B92AA0FFF774F90121254800F0F6F85B
:100F0000002070BD6806010E0022214800F070F933
:100F1000204C00BF1E481430008840F202410840B7
:100F200010B9601E041EF5D15CB91948143001884F
:100F30001EA0FFF755F90121154800F0D7F8002051
:100F4000DFE713481430008800F0020058B1104861
:100F5000143000880E481830008801210C4800F039
:100F6000C5F80120CDE70A481430008800F48060FD
:100F700038B107481430008820F4806004491431E7
:100F800008800121024800F0B1F80020B9E7000014
:100F900000540040400D030001000300535441522F
:100FA000542074696D656F75740D0A004144445294
:100FB00020776169742074696D656F75742C205396
:100FC00052313D3078253034580D0A0000B585B0D7
:100FD0000121082000F0EAFC0121480500F0C6FCD0
:100FE000C020ADF810001C208DF8130003208DF8F0
:100FF000120004A91548FFF7DDFE0121144800F096
:1010000002F90021124800F0FEF8114800F046F8FD
:101010000020ADF804004BF6FF70ADF8060000208C
:10102000ADF808004FF48060ADF80A000001ADF89B
:101030000C00084800906946054800F063F801215B
:10104000034800F01EF805B000BD0000000C014090
:1010500000540040A086010070B50246002400251F
:1010600000230020958A138B1B0445EA030626F013
:101070007F4404EA01068E4201D1012000E00020F5
:1010800070BD21B1028842F00102028004E00288B2
:101090004FF6FE731A4002807047000010B50446F8
:1010A0000B48844209D10121480500F06FFC002162
:1010B0004FF4001000F06AFC08E00121880500F000
:1010C00065FC00214FF4800000F060FC10BD0000C2
:1010D0000054004021B1028842F48072028004E092
:1010E00002884FF6FF631A400280704721B10288E0
:1010F00042F40072028004E002884FF6FF531A4067
:10110000028070472DE9F04385B004460D46002665
:10111000B1460427DFF8CC80A6884FF6C0700640A1
:10112000684600F063FCDDF808802F48B8FBF0F05B
:101130001FFA80F946EA0906A68020884FF6FE715C
:101140000840208000262949286888420CD8286851
:101150004000B8FBF0F087B2042F00DA04273E43CA
:1011600009F10100208427E0E8884BF6FF718842EE
:1011700006D1286800EB4000B8FBF0F087B209E028
:10118000286800EBC00101EB0010B8FBF0F087B25B
:1011900047F48047C7F30B0008B947F0010747F44D
:1011A000004006434FF4967009FB00F04FF47A714B
:1011B00090FBF1F0401C2084A683208840F00100C1
:1011C000208026884FF6F5300640A88869890843B4
:1011D00006432680A88929890843208105B0BDE8F7
:1011E000F083000000127A0040420F00A086010048
:1011F00012B141F0010102E04FF6FE731940018285
:1012000070470182704721B1028842F40042028097
:1012100003E00288C2F30E020280704770B50546F3
:101220000C46204600F058F808B9002070BD012196
:101230001C48FFF74FFF1B4814302246012100F0E5
:101240003DF808B90020F1E76806010E00221548B4
:10125000FFF7CEFF00BF13481430008840F2024170
:10126000084018B9201EA4F10104F4D10CB90020E3
:10127000DCE70C481430008800F4806048B109486D
:101280001430008820F48060064914310880002062
:10129000CCE7044814300088024818300088012048
:1012A000C4E700000054004010B50446024822463E
:1012B000042100F003F810BD1454004010B503469B
:1012C00004E0101EA2F1010200D110BD1868084010
:1012D0000028F6D00120F8E7014604E0081EA1F13D
:1012E000010100D170470448008800F00200002886
:1012F000F4D10120F6E700001854004070B5044610
:101300000D4607482A468021FFF7D8FF08B900207C
:1013100070BD214602481438FFF773FF0120F7E73C
:10132000145400402DE9F04781460D4616461F46ED
:10133000DFF8708041464846FFF770FF30B9012161
:101340001948FFF7D3FE0020BDE8F0874146284644
:10135000FFF7D4FF28B901211348FFF7C7FE00208B
:10136000F2E700240CE0305D4146FFF7C7FF28B9E3
:1013700001210D48FFF7BAFE0020E5E7601C84B2AA
:10138000BC42F0DB4046FFF78FFF28B90121064839
:10139000FFF7ACFE0020D7E701210348FFF7A6FEC8
:1013A0000120D1E7E09304000054004000B589B06B
:1013B0000121042000F0FAFA0121084600F0D6FAD3
:1013C0000120ADF8200004208DF8230008A91F4853
:1013D000FFF7F0FC4720ADF814004FF6FF70ADF8B2
:1013E00018000020ADF81A00ADF8160005A94FF05E
:1013F000804000F007FF0020ADF80800ADF80A00BB
:101400000120ADF80C000020ADF80E00ADF8100082
:1014100002A94FF0804000F00BFE01220221480794
:1014200000F05CFE1C208DF8040001208DF8050002
:101430008DF806008DF8070001A800F029F80121B9
:10144000880700F0D4FD09B000BD0000000801408D
:1014500001460C48007C08B9002070470948006824
:101460000860084840684860064880688860054809
:10147000C068C8600348007C08740020014A1074EA
:101480000120EAE74807002000BFFEE770470000A0
:1014900070B5002100230F22C47804B3154C2468D2
:1014A00004F4E064C4F5E064210AC1F10403CA4015
:1014B000447804FA03F184781440214309010E4C66
:1014C0000678A155047804F01F050124AC40057886
:1014D0006D11AD0005F1E025C5F8004109E0047883
:1014E00004F01F050124AC40044D0678761145F840
:1014F000264070BD0CED00E000E400E080E100E07B
:1015000010B54FF480610248FFF755F810BD000098
:10151000480300202DE9F04105460F4616460024F9
:101520000AE004EB440105EB4101C8B22022394630
:1015300000F050F9601CC4B2B442F2DBBDE8F081A7
:10154000F0B503461546802B01DA402900DBF0BDDB
:101550000C46CE1701EB5676F61003EBC616B0B26A
:10156000CE1701EB5676F610A1EBC6070126BE405A
:10157000F2B22DB1064C245C1443054E345404E001
:10158000034C245C9443024E345400BFDFE7000058
:10159000480300202DE9F04F81460C4617469B4634
:1015A0000FB9BDE8F08F402C00DBFAE7E0194028C6
:1015B00002DDC4F14000C7B2BBF1000F14D0002619
:1015C00010E0A04608E0002241463046FFF7B8FF91
:1015D00008F1010000F0FF08E019C0B24045F2DC5C
:1015E000701CC6B2802EECDBB9F800003A462146EA
:1015F00000F0CAF80546012229460020FFF7A0FFA7
:101600004FF001082DE039F818003A46214600F065
:10161000BBF80646012231464046FFF791FFAE4235
:101620000DDDAA4608E0012251464046FFF788FF3B
:101630000AF1010000F0FF0AB245F4DD0CE0B24609
:1016400008E0012251464046FFF77AFF0AF1010007
:1016500000F0FF0AAA45F4DD354608F1010000F06C
:10166000FF08B8F1800FCEDB00BF9AE710B5FFF797
:10167000ADFC642000F018FF3C20FFF729FC18B1F6
:101680003C20324908700BE03D20FFF721FC18B1E7
:101690003D202E49087003E02DA0FEF7A1FD10BDEE
:1016A0002A48017833A0FEF79BFDAE2000F026F912
:1016B000D52000F023F9802000F020F9A82000F0C8
:1016C0001DF93F2000F01AF9D32000F017F900208F
:1016D00000F014F9402000F011F98D2000F00EF90F
:1016E000142000F00BF9202000F008F9022000F08F
:1016F00005F9A12000F002F9C82000F0FFF8DA2077
:1017000000F0FCF8122000F0F9F8812000F0F6F863
:101710007F2000F0F3F8D92000F0F0F8F12000F07D
:10172000EDF8DB2000F0EAF8402000F0E7F8A42014
:1017300000F0E4F8A62000F0E1F8AF2000F0DEF8B9
:10174000FFF7DEFE00F0C6F800BFA8E73C0000206F
:101750004F4C4544206E6F7420666F756E64202870
:10176000307833432F30783344206E6F2041434B21
:10177000290D0A004F4C454420616464723D307865
:10178000253032580D0A000030B503460AB9084624
:1017900030BD402A00DD4022501E584340F6FF7500
:1017A000B0FBF5F4501E001B0844C0B2F0E770B562
:1017B00004460D4605F0070141F0B00000F09EF828
:1017C00004F00F0000F09AF8102141EA141000F024
:1017D00095F870BDF0B503467A2B01DC072900DDD2
:1017E000F0BD202A01DB7F2A00DD2022A2F12000AB
:1017F00000EB40000B4E06EB400403EBC11085B23A
:1018000000200AE01E18802E05DA265C2F18DFF86B
:1018100018C00CF80760461CF0B20628F2DB00BFC7
:10182000DEE70000E22C000848030020FEB5044675
:101830000D461646324605A16846FEF7DDFC6A46AF
:101840002946204600F004F8FEBD0000256C750016
:1018500070B505460E4614460FE014F8012B3146CC
:101860002846FFF7B7FFA81DC5B27A2D05DD002574
:10187000701CC6B2072E00DD02E020780028ECD1F3
:1018800000BF70BD10B5FFF73BFE0BA2002108465C
:10189000FFF7DEFF0AA200214020FFF7D9FF09A2CF
:1018A00001210020FFF7D4FF08A201212420FFF727
:1018B000CFFF00F00FF810BD4144433A0000000094
:1018C0006D563A004255463A000000002D2D2D2D50
:1018D0000000000010B500240BE021460020FFF7B7
:1018E00066FF054901EBC410802100F013F8601C6D
:1018F000C4B2082CF1DB10BD4803002001B5012360
:101900006A46002102480078FFF70CFD08BD000080
:101910003C00002070B504460D462B46224640216F
:1019200002480078FFF7FEFC70BD00003C0000207C
:101930007047000001460020034A506820F44040F0
:1019400008435060704700000010024029B1064A69
:1019500052690243044B5A6104E0034A52698243CC
:10196000014B5A61704700000010024029B1064A3D
:10197000D2690243044BDA6104E0034AD26982432C
:10198000014BDA61704700000010024029B1064A9D
:1019900012690243044B1A6104E0034A126982434C
:1019A000014B1A61704700000010024029B1064A3D
:1019B00092690243044B9A6104E0034A92698243AC
:1019C000014B9A61704700000010024029B1064A9D
:1019D000D2680243044BDA6004E0034AD2688243CF
:1019E000014BDA60704700000010024030B5002162
:1019F0000022002400232D4D6D6805F00C0121B15B
:101A0000042905D0082923D105E0294D056022E0ED
:101A1000274D05601FE0254D6D6805F47012234DBC
:101A20006D6805F48034022505EB92421CB9214D06
:101A3000554305600BE01D4D6D6805F400351DB183
:101A40001C4D5543056002E0194D5543056002E009
:101A5000174D056000BF00BF144D6D6805F0F00123
:101A60000909154D6B5C0568DD4045600F4D6D68DB
:101A700005F4E061090A104D6B5C4568DD40856046
:101A80000A4D6D6805F46051C90A0B4D6B5C4568E1
:101A9000DD40C560054D6D6805F44041890B074D7B
:101AA0006B5CC568B5FBF3F5056130BD0010024005
:101AB00000127A0000093D001400002024000020DC
:101AC000704710B500F002F810BD00000CB5002002
:101AD000019000903348006840F48030314908603C
:101AE00000BF3048006800F4003000900198401CAE
:101AF0000190009818B90198B0F5A06FF1D129486C
:101B0000006800F4003010B10120009001E00020D6
:101B100000900098012843D12348006840F010004D
:101B2000214908600846006820F007000860084660
:101B3000006840F0020008601A484068194948608F
:101B40000846406848600846406840F48060486045
:101B50000846406820F47C1048600846406840F41D
:101B6000E81048600846006840F08070086000BFD8
:101B70000C48006800F000700028F9D0094840685F
:101B800020F00300074948600846406840F0020022
:101B9000486000BF0348406800F00C000828F9D1F5
:101BA0000CBD000000100240002002407047000001
:101BB00010B51348006840F001001149086008465C
:101BC0004068104908400E494860084600680E49C0
:101BD00008400B4908600846006820F4802008602F
:101BE0000846406820F4FE0048604FF41F008860FB
:101BF000FFF767FF4FF000600449086010BD000068
:101C0000001002400000FFF8FFFFF6FE08ED00E0C4
:101C1000F0B50C46154600220021068C4FF6FE77E3
:101C20003E400684028B018C4FF60C7632407E1CBF
:101C300006EA03162E433243104EB0420ED0104E29
:101C4000B0420BD0B0F1804F08D00E4EB04205D05C
:101C50000D4EB04202D00D4EB04206D14FF6FD7689
:101C6000314044F00106314305E04FF6F57631404E
:101C700044F00106314302830184F0BD002C014091
:101C8000003401400004004000080040000C004007
:101C9000F0B50C461546002200210026078C4FF6B1
:101CA000EF7C07EA0C070784028B018C4FF6FF7765
:101CB00007EA041640F6FF473A404FF6FF7707EA77
:101CC00003373A434FF6FF7707EA05273A43114FA8
:101CD000B8420ED0104FB8420BD0B0F1804F08D0B0
:101CE0000E4FB84205D00E4FB84202D00D4FB84249
:101CF00006D14FF6DF77394046F01007394305E04B
:101D00004FF65F77394044F010073943028301846E
:101D1000F0BD0000002C01400034014000040040F0
:101D200000080040000C0040F0B50C4615460022AB
:101D300000210026078C4FF6FF6C07EA0C0707848A
:101D4000828B018C4FF6FF7707EA04264FF60C775B
:101D50003A404FF6FF7707EA03172F433A43114FF4
:101D6000B8420ED0104FB8420BD0B0F1804F08D01F
:101D70000E4FB84205D00E4FB84202D00D4FB842B8
:101D800006D14FF6FF57394046F48077394305E0D6
:101D90004FF2FF57394044F48077394382830184FE
:101DA000F0BD0000002C0140003401400004004060
:101DB00000080040000C0040F0B50C46154600221B
:101DC00000210026078C4EF6FF7C07EA0C070784EB
:101DD000828B018C4FF6FF7707EA043640F6FF4707
:101DE0003A404FF6FF7707EA05273A434FF6FF7769
:101DF00007EA03373A43114FB8420ED0104FB842AA
:101E00000BD0B0F1804F08D00E4FB84205D00E4F26
:101E1000B84202D00D4FB84206D14DF6FF77394097
:101E200046F48057394305E047F6FF57394044F4FC
:101E30008057394382830184F0BD0000002C0140AB
:101E4000003401400004004000080040000C004045
:101E50002DE9F0470221480700F0D8F800285BD0B0
:101E60000221480700F0C0F84FF0804000F0CBF8A6
:101E700005462A48007848B92948058001202749A5
:101E800008700221800700F07FF944E023480078C1
:101E9000012809D12348058002202049087000212B
:101EA000400700F071F936E01F48058000201B490B
:101EB00008701D4801881A48008800F02BFB044672
:101EC000184801881648008800F024FB06460CB329
:101ED000A6421FD8154804604660204600F0ACFDBD
:101EE00007463946124800F0C5FC10498860204674
:101EF00000F0A2FD8046304600F09EFD81460D496F
:101F000000F0AEFD0746414600F0B4FC0749C8604A
:101F10000120087400BF00BFBDE8F0874400002026
:101F20003E00002040000020420000204807002022
:101F3000002474490000C84200B589B00121042082
:101F4000FFF734FD4020ADF8200018208DF8230065
:101F500003208DF8220008A91B48FEF72BFF012162
:101F60000220FFF703FD0020ADF81A0040F2E73031
:101F7000ADF8180040F2CF20ADF814000020ADF805
:101F8000160005A9114800F03DF96020ADF80400E5
:101F90000120ADF806004FF4FA70ADF80A000020F9
:101FA000ADF80C0001A9094800F0A2F80821074883
:101FB00000F0F3F80121054800F00AF80121034878
:101FC00000F015F809B000BD000801400004004011
:101FD00021B1028842F08002028004E002884FF6BC
:101FE0007F731A4002807047CA430282704721B152
:101FF000028842F00102028004E002884FF6FE737C
:102000001A40028070470146888E704730B50246FC
:10201000002000230024158A05EA0103958905EABA
:10202000010413B10CB1012000E0002030BD00001C
:1020300070B505460C46244885420ED0234885429B
:102040000BD0B5F1804F08D02148854205D02148FA
:10205000854202D02048854200D100E000BF2088A0
:1020600050B92389A28861882846FFF7D1FDE1880D
:10207000284600F09BF825E0208804280AD123890F
:10208000A28861882846FFF703FEE188284600F011
:1020900096F817E0208808280AD12389A288618849
:1020A0002846FFF741FEE188284600F095F809E050
:1020B0002389A28861882846FFF77EFEE1882846AA
:1020C00000F093F870BD0000002C01400034014086
:1020D0000004004000080040000C00401AB1838951
:1020E0000B43838102E083898B4383817047000027
:1020F00070B5002400220023058C4FF6FE76354093
:102100000584028C8388048B4FF68F752C40B51E96
:102110002C400D882C43751E2A400D892A434D887A
:102120002A43144DA8420BD0134DA84208D0134D9A
:10213000A84205D0124DA84202D0124DA84213D198
:102140004FF6F7752A404D892A434FF6FB752A4012
:102150008D882A434FF6FF652B404FF6FF552B40E5
:102160008D892B43CD892B4383800483CD8885863D
:10217000028470BD002C0140003401400040014049
:1021800000440140004801400A460021018C4FF6FE
:10219000FD7319401143018470470A460021018BE9
:1021A0004FF6F7731940114301837047028B4FF6C6
:1021B000F3731A400283028B0A4302837047028B37
:1021C0004FF2FF331A400283028B4FF6FF7303EA8C
:1021D00001231A4302837047828B4FF6F3731A4030
:1021E0008283828B0A4382837047828B4FF2FF3354
:1021F0001A408283828B4FF6FF7303EA01231A434E
:1022000082837047002202881D4B98420ED01D4BDE
:1022100098420BD0B0F1804F08D01B4B984205D0AC
:102220001A4B984202D01A4B984204D14FF68F7342
:102230001A404B881A43174B984207D0164B9842C6
:1022400004D04FF6FF431A40CB881A4302808B8894
:1022500083850B8803850A4B98420BD0094B984223
:1022600008D00E4B984205D00D4B984202D00D4B32
:10227000984201D10B7A03860123838270470000C4
:10228000002C0140003401400004004000080040E0
:10229000000C0040001000400014004000400140CD
:1022A000004401400048014008B5012144F2050006
:1022B000FFF77CFB18208DF803004FF40070ADF899
:1022C000000003208DF8020069460948FEF772FD00
:1022D0004FF48060ADF8000004208DF80300032067
:1022E0008DF8020069460248FEF764FD08BD000053
:1022F000000801401FB50446FFF7D6FF00940020F8
:10230000ADF80400ADF80600ADF80800ADF80C001B
:102310000C20ADF80A006946034800F021F80121BD
:10232000014800F003F81FBD0038014021B1828947
:1023300042F40052828104E082894DF6FF731A4014
:102340008281704702460020B1F5007F00D100BFB6
:1023500013880B400BB1012000E000207047000003
:102360002DE9F04786B005460E460024A24600BF80
:10237000A1460027B08900B100BF2F462C8A4CF639
:10238000FF700440F08804432C82AC894EF6F310B1
:102390000440B08831890843718908430443AC8103
:1023A000AC8A4FF6FF400440B0890443AC8201A8D8
:1023B000FFF71CFB1F48874202D1DDF810A001E0A7
:1023C000DDF80CA0A88900F4004040B10AEBCA0077
:1023D00000EB0A1031684900B0FBF1F807E00AEBA6
:1023E000CA0000EB0A1031688900B0FBF1F86420E4
:1023F000B8FBF0F004012009642101FB1089A889D1
:1024000000F4004040B1322000EBC900B0FBF1F015
:1024100000F00700044308E0322000EB09106421BB
:10242000B0FBF1F000F00F0004432C8106B0BDE8D2
:10243000F087000000380140C1F308028280704735
:1024400000BFFEE730380A2801D201207047002083
:10245000704700BF00BFFEE74FF0E020006940F08A
:1024600004004FF0E02108610B4800680B49B0FB05
:10247000F1F00B490860084600684FF47A71484350
:10248000084908604FF0E020006920F001004FF09B
:10249000E0210861704700000000002040420F006A
:1024A000280000202C00002010B500B910BD184AEB
:1024B00012686FF07F43B3FBF2F125E0884201D947
:1024C0000B4600E003461A46801A114B1B68534323
:1024D0005B1E4FF0E02463610023A36123461B6968
:1024E00043F00103236100BF4FF0E0231B6903F4B5
:1024F0008033002BF8D04FF0E0231B6923F0010359
:102500004FF0E024236100BF0028D7D100BFCDE702
:102510002C0000200246881A80B2704770B504462D
:102520000D46E1B20548FFF787FF00BF8021034851
:10253000FFF708FF0028F9D0204670BD00380140A1
:102540008EB0FFF735FBFFF787FF4FF4E130FFF761
:10255000D1FE55A0FDF744FEFFF788F855A0FDF722
:102560003FFEFEF7AFF94FF4807157A0FDF738FE3C
:10257000FFF7E2FC5BA0FDF733FEFEF717FF61A05B
:10258000FDF72EFE67A0FDF72BFEFFF77BF9002776
:10259000002500200D90142108A8FEF72EF8A8466B
:1025A00000240020079006907DE00A20FFF77CFFC2
:1025B0000A346348008890B10020614908804FF4D4
:1025C000807260496048FDF77FFF012780215E48E7
:1025D000FEF752F905462846FEF75FFA0D905B4874
:1025E000008810B100205949088001A8FEF730FF8B
:1025F00030B1142201A908A8FDF7ABFF4FF0010884
:102600000798201A64281DD3079406220021182059
:10261000FEF780FF052200215820FEF77BFF2A46A7
:1026200000211820FFF702F9002158200D9AFFF72A
:10263000FDF82FB10123302210214348FEF7AAFFF5
:10264000FFF748F90698201AC8282CD30694B8F149
:10265000000F25D04FF07C510A9800F0A9F882466F
:1026600000F0CAF981463A490B9800F0F9F983461F
:102670004FF07C5100F09CF8824600F0BDF9064610
:102680000A20B6FBF0F100FB116AB6FBF0FBCDE9C6
:1026900000BA4B462FA0DDE90812FDF7A1FD02E0CC
:1026A00039A0FDF79DFD80E7426F6F742E2E2E0D31
:1026B0000A0000004F4C454420696E697420646F25
:1026C0006E650D0A0000000041444320444D412046
:1026D00073746172742C204255465F4C454E3D2503
:1026E000640D0A0050574D2073746172743A20547F
:1026F000494D335F434831206F6E205041360D0AFB
:10270000000000004943207374617274203A205421
:10271000494D325F434831206F6E205041300D0AE1
:102720000000000057697265204D5553543A2050FF
:102730004136202D2D3E205041300D0A0000000072
:102740003800002048010020480000203A00002006
:102750000000204149433A2054636E743D256C7556
:102760002048636E743D256C752020463D256C75B0
:10277000487A2020447574793D256C752E256C753A
:1027800025250D0A0000000049433A206E6F207392
:1027900069676E616C2028636865636B2050413601
:1027A0002D3E5041302077697265290D0A000000E6
:1027B00090EA010F48BF81F0004100F12482421AE3
:1027C0003CBF801A89184FEAD0524FF07F4C1CEA68
:1027D000410FA2EBD15318BF9CEA026F00F03B807F
:1027E0004FF0004C4CEA00204CEA012121FA03FC96
:1027F00010EB0C0C1ED202F1FF325FEA1C2040EB02
:10280000C25038BF70471CF07F0F4FEA400C18BF12
:10281000BCF17F4F38BF7047C3F12003994008BF18
:1028200020F00100BCF17F4F38BF7047A0F1C040DD
:1028300000F0DDB94FEA3C00000A40EBC25028BF6F
:102840001CF0FF0F4FEA400CE6D018BFBCF17F4FE1
:1028500038BF7047EAE79CEA026F05D010EA5C0FC8
:1028600008BF00F00040704710B500F07AF900BFD3
:1028700064FBBE3E4FF47F0C1CEAD0121EBF1CEA64
:10288000D11392EA0C0F93EA0C0F00F0858090EAC6
:10289000010F48BF42F4807240F4000C41F4000084
:1028A0002CF07F4120F07F4000B58142A2EB030273
:1028B0000FF2081CACEB504EC0F100009EF800E097
:1028C0004FEA4E0E00FB0EFC38BF49004FEA2C1CAD
:1028D00002F5FA020CFB0EF34FEACE1E4FEA112C62
:1028E0004FEAC1210EEB635E42EB22420EFB0CFC71
:1028F0004FEA1C5300FB03114FEA112C4FEA013140
:102900000EFB0CFC4FEADC4C00FB0C11C14228BF53
:1029100009184CEB03335DF804EB10EB410143EB7A
:10292000C250B2F57C0F38BF704729D512F0F00FB6
:102930001CBF00F1C04000F000407047008182835E
:102940008485868788898B8C8D8E8F9192939596BE
:1029500097999A9C9D9FA0A2A3A5A7A8AAACAEB048
:10296000B2B3B5B7B9BCBEC0C2C5C7C9CCCED1D44D
:10297000D7D9DCDFE2E6E9ECF0F3F7FAFE0000007D
:102980004FEA400C0CF1807CBCF17E4F28BF7047B1
:10299000B0F1C04000F02BB990EA010F0CEAD1135E
:1029A00048BF42F48072624538BF634507D213F4D2
:1029B0007F0F16D080EA010000F00040704710B58C
:1029C00000F0CFF8097EFC3E00F005B880EA010077
:1029D00000F00040704780EA010000F0004000F085
:1029E00006B912F47F0F04BF0248704780EA010065
:1029F00000F0FDB80000C07FC10DD1F19E0206DBE2
:102A00004FEA002343F0004323FA02F070470042EC
:102A100007D54FEA4001B1F1FE4F02D24FF000005E
:102A2000704710B500F09DF849922480002070474F
:102A30006FEA200070470000B0FA80F310FA03F24A
:102A4000C3F19D030AD0D90501EB1220530638BF0C
:102A5000704700F1010008BF20F00100704700003E
:102A60004FF47F0C1CEAD0121EBF1CEAD11392EA6D
:102A70000C0F93EA0C0F00F0478090EA010F48BF5B
:102A800042F480724FF0004C4CEA00204CEA0121E5
:102A900002EB0302A0FB0113A2F50002002918BFFC
:102AA00043F001035B0028BF4FEA330342EB2242AD
:102AB0005FEA132C4CEBC2502EBFBCEB436FB2F558
:102AC0007C0F70474FEA036CBCF1004F08BF20F049
:102AD0000100B2F57C0F38BF70470BD582F0FF02C2
:102AE00012F5803FC8BF704700F1C040D8BF00F06A
:102AF0000040704700F5000C5FEA4C0C48BF70477F
:102B0000B0F1C04000F073B890EA010F0CEAD113A5
:102B100048BF42F48072624538BF634504D280EA00
:102B2000010000F00040704710B500F01AF800BF37
:102B30008900013E00F007B800F009B85FEA410CD7
:102B40005FEA1C6C08D080EA010000F050B85FEA30
:102B5000400C5FEA1C6CF6D14FF00040A0F58000FD
:102B600070470EF1020E2EF0030E5EF8044B244265
:102B700004D44FEA4102B2F17F4F11D84FEA40032B
:102B8000B3F17F4F0CD80ED14FEAD07CB2F17F4F1A
:102B90000CEB4C0C0CF1020C08BF4CEBD17C04E0AC
:102BA0004FF0080C01E04FEAD17C0CEB4C0324FA07
:102BB00003F404F00704B4F1040C06D20EEB840C09
:102BC000BDE810404CF0010C6047DFE80CF007084E
:102BD00002024FF00040A0F5800010BD0846420000
:102BE00018BFD2F1807288BF00F0004010BDFF21F5
:102BF00041EAD050C005704790EA010F48BF81F00C
:102C000000413FF5DCAD421A04D882F00042A0EB4F
:102C1000020011444FEAD0524FF07F4C1CEA410FA2
:102C2000A2EBD15318BF9CEA026F4AD04FF0004C80
:102C30004CEA00204CEA012121FA03FCB0EB0C0C19
:102C40000FD412F0FE0F36D05FEA4C001DD50012F3
:102C500040EBC25038BF70471CF03F0F18BF7047A1
:102C60000BE0A2F101025FEA1C2040EBC25038BF2A
:102C700070471CF07F0F18BF7047C3F120039940C5
:102C800014BF401E20F00100704780084FEA122355
:102C900008BF7047B0FA80FCA2EB0C02CCF1280C04
:102CA00060FA0CF093EA122F04BF00EBC250704799
:102CB0004FEAC3707047130A5FEADC1008BF704721
:102CC000F6E79CEA026F04D010EA5C0F08BF002010
:102CD000704710B5FFF745FF40DFF63E81F000403A
:102CE000704700000000000000005F0000000007C7
:102CF00000070000147F147F1400242A7F2A12008A
:102D00002313086462003649552250000005030071
:102D10000000001C224100000041221C0000140899
:102D20003E08140008083E0808000050300000006B
:102D3000080808080800006060000000201008046F
:102D400002003E5149453E0000427F400000426182
:102D5000514946002141454B31001814127F1000A3
:102D60002745454539003C4A49493000017109056C
:102D70000300364949493600064949291E000036F4
:102D80003600000000563600000008142241000002
:102D900014141414140000412214080002015109F3
:102DA0000600324979413E007E1111117E007F49B3
:102DB000494936003E41414122007F4141221C00E9
:102DC0007F49494941007F09090901003E414949BC
:102DD0007A007F0808087F0000417F410000204002
:102DE000413F01007F08142241007F4040404000E5
:102DF0007F020C027F007F0408107F003E414141AA
:102E00003E007F09090906003E4151215E007F090D
:102E10001929460046494949310001017F01010055
:102E20003F4040403F001F2040201F003F403840AF
:102E30003F0063140814630007087008070061511D
:102E400049454300007F4141000002040810200072
:102E50000041417F00000402010204004040404064
:102E600040000001020400002054545478007F48C0
:102E700044443800384444442000384444487F00E7
:102E8000385454541800087E090102000C52525262
:102E90003E007F080404780000447D40000020408C
:102EA000443D00007F102844000000417F400000A6
:102EB0007C04180478007C080404780038444444F6
:102EC00038007C1414143800384444147C007C0806
:102ED00004040800485454542000043F4440200097
:102EE0003C4040207C001C2040201C003C403040E6
:102EF0003C004428102844000C5050503C004464CE
:102F0000544C440000083641000000007F000000DF
:102F10000041360800000804081008000000000006
:102F2000000030313233343536373839414243448A
:102F30004546403058003031323334353637383931
:102F40006162636465664030780004000008000038
:102F50000000000000020001000010007C2F0008AB
:102F6000000000204800000028010008C42F0008CD
:102F700048000020780D00004401000800A24A0427
:102F80000000000000000000010203040607080919
:102F900000000000010203040102030406070809FF
:102FA000020406080000000000000000000000000D
:102FB00000000000000000003C00000000000000D5
:042FC000000000000D
:04000005080000ED02
:00000001FF
